{
  "_format": "hh-sol-artifact-1",
  "contractName": "Faucet",
  "sourceName": "contracts/Faucet.sol",
  "abi": [
    {
      "inputs": [],
      "stateMutability": "nonpayable",
      "type": "constructor"
    },
    {
      "anonymous": false,
      "inputs": [
        {
          "indexed": false,
          "internalType": "uint8",
          "name": "tokenID",
          "type": "uint8"
        },
        {
          "indexed": false,
          "internalType": "address",
          "name": "tokenAddress",
          "type": "address"
        },
        {
          "indexed": false,
          "internalType": "string",
          "name": "name",
          "type": "string"
        },
        {
          "indexed": false,
          "internalType": "string",
          "name": "symbol",
          "type": "string"
        },
        {
          "indexed": false,
          "internalType": "uint8",
          "name": "decimals",
          "type": "uint8"
        }
      ],
      "name": "CreateToken",
      "type": "event"
    },
    {
      "anonymous": false,
      "inputs": [
        {
          "indexed": true,
          "internalType": "address",
          "name": "previousOwner",
          "type": "address"
        },
        {
          "indexed": true,
          "internalType": "address",
          "name": "newOwner",
          "type": "address"
        }
      ],
      "name": "OwnershipTransferred",
      "type": "event"
    },
    {
      "anonymous": false,
      "inputs": [
        {
          "indexed": false,
          "internalType": "uint256",
          "name": "orderID",
          "type": "uint256"
        },
        {
          "indexed": false,
          "internalType": "uint8",
          "name": "tokenID",
          "type": "uint8"
        },
        {
          "indexed": false,
          "internalType": "uint8",
          "name": "sendID",
          "type": "uint8"
        },
        {
          "indexed": false,
          "internalType": "address",
          "name": "sender",
          "type": "address"
        },
        {
          "indexed": false,
          "internalType": "address",
          "name": "receiver",
          "type": "address"
        },
        {
          "indexed": false,
          "internalType": "uint256",
          "name": "amount",
          "type": "uint256"
        },
        {
          "indexed": false,
          "internalType": "uint256",
          "name": "OKBBalance",
          "type": "uint256"
        },
        {
          "indexed": false,
          "internalType": "uint256",
          "name": "transferCounts",
          "type": "uint256"
        },
        {
          "indexed": false,
          "internalType": "bool",
          "name": "success",
          "type": "bool"
        },
        {
          "indexed": false,
          "internalType": "bytes",
          "name": "errMsg",
          "type": "bytes"
        }
      ],
      "name": "SendToken",
      "type": "event"
    },
    {
      "anonymous": false,
      "inputs": [
        {
          "indexed": false,
          "internalType": "uint256",
          "name": "threshold",
          "type": "uint256"
        }
      ],
      "name": "SetOKBThreshold",
      "type": "event"
    },
    {
      "anonymous": false,
      "inputs": [
        {
          "indexed": false,
          "internalType": "uint8",
          "name": "tokenID",
          "type": "uint8"
        },
        {
          "indexed": false,
          "internalType": "uint8",
          "name": "sendID",
          "type": "uint8"
        },
        {
          "indexed": false,
          "internalType": "uint256",
          "name": "amount",
          "type": "uint256"
        },
        {
          "indexed": false,
          "internalType": "uint256",
          "name": "duration",
          "type": "uint256"
        }
      ],
      "name": "SetSendLimit",
      "type": "event"
    },
    {
      "anonymous": false,
      "inputs": [
        {
          "indexed": false,
          "internalType": "address",
          "name": "sender",
          "type": "address"
        },
        {
          "indexed": false,
          "internalType": "bool",
          "name": "enable",
          "type": "bool"
        }
      ],
      "name": "SetSender",
      "type": "event"
    },
    {
      "anonymous": false,
      "inputs": [
        {
          "indexed": false,
          "internalType": "uint256",
          "name": "amount",
          "type": "uint256"
        }
      ],
      "name": "WithdrawOKB",
      "type": "event"
    },
    {
      "inputs": [],
      "name": "OKBBalance",
      "outputs": [
        {
          "internalType": "uint256",
          "name": "",
          "type": "uint256"
        }
      ],
      "stateMutability": "view",
      "type": "function"
    },
    {
      "inputs": [],
      "name": "OKBThreshold",
      "outputs": [
        {
          "internalType": "uint256",
          "name": "",
          "type": "uint256"
        }
      ],
      "stateMutability": "view",
      "type": "function"
    },
    {
      "inputs": [],
      "name": "OKB_ADDRESS",
      "outputs": [
        {
          "internalType": "address",
          "name": "",
          "type": "address"
        }
      ],
      "stateMutability": "view",
      "type": "function"
    },
    {
      "inputs": [],
      "name": "blockHeight",
      "outputs": [
        {
          "internalType": "uint256",
          "name": "",
          "type": "uint256"
        }
      ],
      "stateMutability": "view",
      "type": "function"
    },
    {
      "inputs": [
        {
          "internalType": "string",
          "name": "name",
          "type": "string"
        },
        {
          "internalType": "string",
          "name": "symbol",
          "type": "string"
        },
        {
          "internalType": "uint8",
          "name": "decimals",
          "type": "uint8"
        }
      ],
      "name": "createTestToken",
      "outputs": [
        {
          "internalType": "uint8",
          "name": "tokenID",
          "type": "uint8"
        }
      ],
      "stateMutability": "nonpayable",
      "type": "function"
    },
    {
      "inputs": [],
      "name": "getMultiInfo",
      "outputs": [
        {
          "internalType": "uint256",
          "name": "_blockHeight",
          "type": "uint256"
        },
        {
          "internalType": "uint256",
          "name": "_OKBBalance",
          "type": "uint256"
        },
        {
          "internalType": "uint256",
          "name": "_totalSendCounts",
          "type": "uint256"
        }
      ],
      "stateMutability": "view",
      "type": "function"
    },
    {
      "inputs": [
        {
          "internalType": "uint8",
          "name": "tokenID",
          "type": "uint8"
        },
        {
          "internalType": "uint8",
          "name": "sendID",
          "type": "uint8"
        }
      ],
      "name": "getSendLimit",
      "outputs": [
        {
          "internalType": "uint256",
          "name": "amount",
          "type": "uint256"
        },
        {
          "internalType": "uint256",
          "name": "duration",
          "type": "uint256"
        }
      ],
      "stateMutability": "view",
      "type": "function"
    },
    {
      "inputs": [
        {
          "internalType": "uint8",
          "name": "tokenID",
          "type": "uint8"
        }
      ],
      "name": "getSendRecord",
      "outputs": [
        {
          "internalType": "uint256",
          "name": "counts",
          "type": "uint256"
        },
        {
          "internalType": "uint256",
          "name": "amount",
          "type": "uint256"
        }
      ],
      "stateMutability": "view",
      "type": "function"
    },
    {
      "inputs": [
        {
          "internalType": "uint8",
          "name": "tokenID",
          "type": "uint8"
        }
      ],
      "name": "getTokenInfo",
      "outputs": [
        {
          "internalType": "address",
          "name": "tokenAddress",
          "type": "address"
        },
        {
          "internalType": "string",
          "name": "name",
          "type": "string"
        },
        {
          "internalType": "string",
          "name": "symbol",
          "type": "string"
        },
        {
          "internalType": "uint8",
          "name": "decimals",
          "type": "uint8"
        }
      ],
      "stateMutability": "view",
      "type": "function"
    },
    {
      "inputs": [
        {
          "internalType": "uint8",
          "name": "tokenID",
          "type": "uint8"
        },
        {
          "internalType": "address",
          "name": "user",
          "type": "address"
        }
      ],
      "name": "getUserSendRecord",
      "outputs": [
        {
          "internalType": "uint256",
          "name": "counts",
          "type": "uint256"
        },
        {
          "internalType": "uint256",
          "name": "amount",
          "type": "uint256"
        }
      ],
      "stateMutability": "view",
      "type": "function"
    },
    {
      "inputs": [
        {
          "internalType": "uint256",
          "name": "",
          "type": "uint256"
        }
      ],
      "name": "isOrderProcessed",
      "outputs": [
        {
          "internalType": "bool",
          "name": "",
          "type": "bool"
        }
      ],
      "stateMutability": "view",
      "type": "function"
    },
    {
      "inputs": [
        {
          "internalType": "address",
          "name": "",
          "type": "address"
        }
      ],
      "name": "isSender",
      "outputs": [
        {
          "internalType": "bool",
          "name": "",
          "type": "bool"
        }
      ],
      "stateMutability": "view",
      "type": "function"
    },
    {
      "inputs": [
        {
          "internalType": "address",
          "name": "",
          "type": "address"
        },
        {
          "internalType": "uint8",
          "name": "",
          "type": "uint8"
        }
      ],
      "name": "nextAvaliableTime",
      "outputs": [
        {
          "internalType": "uint256",
          "name": "",
          "type": "uint256"
        }
      ],
      "stateMutability": "view",
      "type": "function"
    },
    {
      "inputs": [],
      "name": "owner",
      "outputs": [
        {
          "internalType": "address",
          "name": "",
          "type": "address"
        }
      ],
      "stateMutability": "view",
      "type": "function"
    },
    {
      "inputs": [],
      "name": "renounceOwnership",
      "outputs": [],
      "stateMutability": "nonpayable",
      "type": "function"
    },
    {
      "inputs": [
        {
          "components": [
            {
              "internalType": "uint256",
              "name": "orderID",
              "type": "uint256"
            },
            {
              "internalType": "uint8",
              "name": "tokenID",
              "type": "uint8"
            },
            {
              "internalType": "uint8",
              "name": "sendID",
              "type": "uint8"
            },
            {
              "internalType": "address",
              "name": "receiver",
              "type": "address"
            },
            {
              "internalType": "uint256",
              "name": "deadline",
              "type": "uint256"
            }
          ],
          "internalType": "struct IFaucet.Order[]",
          "name": "orders",
          "type": "tuple[]"
        }
      ],
      "name": "sendBatchToken",
      "outputs": [],
      "stateMutability": "nonpayable",
      "type": "function"
    },
    {
      "inputs": [
        {
          "internalType": "uint256",
          "name": "orderID",
          "type": "uint256"
        },
        {
          "internalType": "uint8",
          "name": "tokenID",
          "type": "uint8"
        },
        {
          "internalType": "uint8",
          "name": "sendID",
          "type": "uint8"
        },
        {
          "internalType": "address",
          "name": "receiver",
          "type": "address"
        },
        {
          "internalType": "uint256",
          "name": "deadline",
          "type": "uint256"
        }
      ],
      "name": "sendToken",
      "outputs": [],
      "stateMutability": "nonpayable",
      "type": "function"
    },
    {
      "inputs": [
        {
          "internalType": "address[]",
          "name": "senders",
          "type": "address[]"
        },
        {
          "internalType": "bool",
          "name": "enable",
          "type": "bool"
        }
      ],
      "name": "setBatchSender",
      "outputs": [],
      "stateMutability": "nonpayable",
      "type": "function"
    },
    {
      "inputs": [
        {
          "internalType": "uint8",
          "name": "tokenID",
          "type": "uint8"
        },
        {
          "internalType": "uint8",
          "name": "sendID",
          "type": "uint8"
        },
        {
          "internalType": "uint256",
          "name": "amount",
          "type": "uint256"
        },
        {
          "internalType": "uint256",
          "name": "duration",
          "type": "uint256"
        }
      ],
      "name": "setLimit",
      "outputs": [],
      "stateMutability": "nonpayable",
      "type": "function"
    },
    {
      "inputs": [
        {
          "internalType": "uint256",
          "name": "threshold",
          "type": "uint256"
        }
      ],
      "name": "setOKBThreshold",
      "outputs": [],
      "stateMutability": "nonpayable",
      "type": "function"
    },
    {
      "inputs": [
        {
          "internalType": "address",
          "name": "sender",
          "type": "address"
        },
        {
          "internalType": "bool",
          "name": "enable",
          "type": "bool"
        }
      ],
      "name": "setSender",
      "outputs": [],
      "stateMutability": "nonpayable",
      "type": "function"
    },
    {
      "inputs": [],
      "name": "tokenCounts",
      "outputs": [
        {
          "internalType": "uint8",
          "name": "",
          "type": "uint8"
        }
      ],
      "stateMutability": "view",
      "type": "function"
    },
    {
      "inputs": [],
      "name": "totalSendCounts",
      "outputs": [
        {
          "internalType": "uint256",
          "name": "",
          "type": "uint256"
        }
      ],
      "stateMutability": "view",
      "type": "function"
    },
    {
      "inputs": [
        {
          "internalType": "address",
          "name": "newOwner",
          "type": "address"
        }
      ],
      "name": "transferOwnership",
      "outputs": [],
      "stateMutability": "nonpayable",
      "type": "function"
    },
    {
      "inputs": [
        {
          "components": [
            {
              "internalType": "uint256",
              "name": "orderID",
              "type": "uint256"
            },
            {
              "internalType": "uint8",
              "name": "tokenID",
              "type": "uint8"
            },
            {
              "internalType": "uint8",
              "name": "sendID",
              "type": "uint8"
            },
            {
              "internalType": "address",
              "name": "receiver",
              "type": "address"
            },
            {
              "internalType": "uint256",
              "name": "deadline",
              "type": "uint256"
            }
          ],
          "internalType": "struct IFaucet.Order",
          "name": "order",
          "type": "tuple"
        }
      ],
      "name": "validateRequest",
      "outputs": [
        {
          "internalType": "bool",
          "name": "success",
          "type": "bool"
        },
        {
          "internalType": "string",
          "name": "errMsg",
          "type": "string"
        }
      ],
      "stateMutability": "view",
      "type": "function"
    },
    {
      "inputs": [],
      "name": "withdrawOKB",
      "outputs": [],
      "stateMutability": "nonpayable",
      "type": "function"
    },
    {
      "stateMutability": "payable",
      "type": "receive"
    }
  ],
  "bytecode": "0x60806040523480156200001157600080fd5b5062000032620000266200020860201b60201c565b6200021060201b60201c565b6000604051806080016040528073eeeeeeeeeeeeeeeeeeeeeeeeeeeeeeeeeeeeeeee73ffffffffffffffffffffffffffffffffffffffff1681526020016040518060400160405280600381526020017f4f4b42000000000000000000000000000000000000000000000000000000000081525081526020016040518060400160405280600381526020017f4f4b4200000000000000000000000000000000000000000000000000000000008152508152602001601260ff1681525090506000600260009054906101000a900460ff16905081600760008360ff1660ff16815260200190815260200160002060008201518160000160006101000a81548173ffffffffffffffffffffffffffffffffffffffff021916908373ffffffffffffffffffffffffffffffffffffffff160217905550602082015181600101908051906020019062000182929190620002d4565b506040820151816002019080519060200190620001a1929190620002d4565b5060608201518160030160006101000a81548160ff021916908360ff1602179055509050506002600081819054906101000a900460ff1680929190620001e790620003c7565b91906101000a81548160ff021916908360ff16021790555050505062000454565b600033905090565b60008060009054906101000a900473ffffffffffffffffffffffffffffffffffffffff169050816000806101000a81548173ffffffffffffffffffffffffffffffffffffffff021916908373ffffffffffffffffffffffffffffffffffffffff1602179055508173ffffffffffffffffffffffffffffffffffffffff168173ffffffffffffffffffffffffffffffffffffffff167f8be0079c531659141344cd1fd0a4f28419497f9722a3daafe3b4186f6b6457e060405160405180910390a35050565b828054620002e29062000391565b90600052602060002090601f01602090048101928262000306576000855562000352565b82601f106200032157805160ff191683800117855562000352565b8280016001018555821562000352579182015b828111156200035157825182559160200191906001019062000334565b5b50905062000361919062000365565b5090565b5b808211156200038057600081600090555060010162000366565b5090565b600060ff82169050919050565b60006002820490506001821680620003aa57607f821691505b60208210811415620003c157620003c062000425565b5b50919050565b6000620003d48262000384565b915060ff821415620003eb57620003ea620003f6565b5b600182019050919050565b7f4e487b7100000000000000000000000000000000000000000000000000000000600052601160045260246000fd5b7f4e487b7100000000000000000000000000000000000000000000000000000000600052602260045260246000fd5b614b1a80620004646000396000f3fe608060405260043610620001ab5760003560e01c80638ff4df3711620000e5578063c5c9b9411162000097578063ef22ed45116200006d578063ef22ed451462000661578063f2fde38b146200068f578063f44ff71214620006bd578063f5f8e9e114620006ed57620001b3565b8063c5c9b94114620005c1578063cf2c550c14620005ef578063e3843463146200061d57620001b3565b80638ff4df37146200044e578063a80378771462000492578063b6b7ca0d14620004d6578063b9eb926414620004f0578063bf5762eb1462000537578063c5896aec146200057c57620001b3565b8063519070ee116200015d578063715018a61162000133578063715018a614620003a4578063788fbb6114620003be5780638cfce58a14620003ee5780638da5cb5b146200041e57620001b3565b8063519070ee14620002ff5780635e1aa8b2146200032f57806364e6ce9d146200037457620001b3565b8063259c289314620001b85780632f69eb3714620001fd57806330d29175146200022b57806330e20bee146200025d57806333943026146200028b5780634dea613214620002cf57620001b3565b36620001b357005b600080fd5b348015620001c557600080fd5b50620001e46004803603810190620001de91906200238f565b6200071b565b604051620001f49291906200288b565b60405180910390f35b3480156200020a57600080fd5b506200022960048036038101906200022391906200230d565b6200076e565b005b3480156200023857600080fd5b5062000243620008a1565b6040516200025493929190620028b8565b60405180910390f35b3480156200026a57600080fd5b506200028960048036038101906200028391906200218a565b620008b6565b005b3480156200029857600080fd5b50620002b76004803603810190620002b1919062002149565b6200093b565b604051620002c691906200286e565b60405180910390f35b348015620002dc57600080fd5b50620002e762000960565b604051620002f69190620029ac565b60405180910390f35b3480156200030c57600080fd5b506200031762000973565b60405162000326919062002632565b60405180910390f35b3480156200033c57600080fd5b506200035b6004803603810190620003559190620022b5565b6200098b565b6040516200036b92919062002721565b60405180910390f35b3480156200038157600080fd5b506200038c62000c32565b6040516200039b91906200286e565b60405180910390f35b348015620003b157600080fd5b50620003bc62000c38565b005b348015620003cb57600080fd5b50620003d662000c50565b604051620003e591906200286e565b60405180910390f35b348015620003fb57600080fd5b506200040662000c58565b6040516200041591906200286e565b60405180910390f35b3480156200042b57600080fd5b506200043662000c5e565b60405162000445919062002632565b60405180910390f35b3480156200045b57600080fd5b506200047a6004803603810190620004749190620022e1565b62000c87565b60405162000489919062002704565b60405180910390f35b3480156200049f57600080fd5b50620004be6004803603810190620004b891906200222d565b62000ca7565b604051620004cd9190620029ac565b60405180910390f35b348015620004e357600080fd5b50620004ee62000e8b565b005b348015620004fd57600080fd5b506200051c60048036038101906200051691906200238f565b62000f1e565b6040516200052e94939291906200267c565b60405180910390f35b3480156200054457600080fd5b506200056360048036038101906200055d9190620023bb565b62001117565b604051620005739291906200288b565b60405180910390f35b3480156200058957600080fd5b50620005a86004803603810190620005a29190620023fc565b620011a9565b604051620005b89291906200288b565b60405180910390f35b348015620005ce57600080fd5b50620005ed6004803603810190620005e79190620021e4565b62001215565b005b348015620005fc57600080fd5b506200061b600480360381019062000615919062002108565b62001332565b005b3480156200062a57600080fd5b50620006496004803603810190620006439190620020dc565b62001445565b60405162000658919062002704565b60405180910390f35b3480156200066e57600080fd5b506200068d60048036038101906200068791906200243d565b62001465565b005b3480156200069c57600080fd5b50620006bb6004803603810190620006b59190620020dc565b6200156a565b005b348015620006ca57600080fd5b50620006d5620015f5565b604051620006e491906200286e565b60405180910390f35b348015620006fa57600080fd5b50620007196004803603810190620007139190620022e1565b620015fd565b005b6000806000600960008560ff1660ff168152602001908152602001600020604051806040016040529081600082015481526020016001820154815250509050806000015192508060200151915050915091565b600460003373ffffffffffffffffffffffffffffffffffffffff1673ffffffffffffffffffffffffffffffffffffffff16815260200190815260200160002060009054906101000a900460ff16620007fd576040517f08c379a0000000000000000000000000000000000000000000000000000000008152600401620007f4906200284c565b60405180910390fd5b6000806200084d6040518060a001604052808981526020018860ff1681526020018760ff1681526020018673ffffffffffffffffffffffffffffffffffffffff168152602001858152506200164a565b9150915081819062000897576040517f08c379a00000000000000000000000000000000000000000000000000000000081526004016200088e919062002755565b60405180910390fd5b5050505050505050565b60008060004392504791506003549050909192565b620008c062001c7b565b60008251905060005b8181101562000935576200091f84828151811062000910577f4e487b7100000000000000000000000000000000000000000000000000000000600052603260045260246000fd5b60200260200101518462001332565b80806200092c9062002cac565b915050620008c9565b50505050565b6006602052816000526040600020602052806000526040600020600091509150505481565b600260009054906101000a900460ff1681565b73eeeeeeeeeeeeeeeeeeeeeeeeeeeeeeeeeeeeeeee81565b60006060600560008460000151815260200190815260200160002060009054906101000a900460ff1615620009e05760006040518060600160405280602f815260200162004a62602f91399150915062000c2d565b6000836060015173ffffffffffffffffffffffffffffffffffffffff163b111562000a2b57600060405180606001604052806029815260200162004abc602991399150915062000c2d565b600260009054906101000a900460ff1660ff16836020015160ff161062000a7257600060405180606001604052806023815260200162004a3f602391399150915062000c2d565b4283608001511162000aa457600060405180606001604052806026815260200162004a19602691399150915062000c2d565b60066000846060015173ffffffffffffffffffffffffffffffffffffffff1673ffffffffffffffffffffffffffffffffffffffff1681526020019081526020016000206000846020015160ff1660ff16815260200190815260200160002054421162000b305760006040518060600160405280602e8152602001620049eb602e91399150915062000c2d565b600060086000856020015160ff1660ff1681526020019081526020016000206000856040015160ff1660ff16815260200190815260200160002060405180604001604052908160008201548152602001600182015481525050905060008160000151141562000bc0576000604051806060016040528060218152602001620049ca60219139925092505062000c2d565b6000846020015160ff1614801562000be8575060015447108062000be75750806000015147105b5b1562000c155760006040518060600160405280602b815260200162004a91602b9139925092505062000c2d565b60016040518060200160405280600081525092509250505b915091565b60035481565b62000c4262001c7b565b62000c4e600062001d00565b565b600047905090565b60015481565b60008060009054906101000a900473ffffffffffffffffffffffffffffffffffffffff16905090565b60056020528060005260406000206000915054906101000a900460ff1681565b600062000cb362001c7b565b600084848460405162000cc69062001dcc565b62000cd49392919062002779565b604051809103906000f08015801562000cf1573d6000803e3d6000fd5b509050600060405180608001604052808373ffffffffffffffffffffffffffffffffffffffff1681526020018781526020018681526020018560ff168152509050600260009054906101000a900460ff16925080600760008560ff1660ff16815260200190815260200160002060008201518160000160006101000a81548173ffffffffffffffffffffffffffffffffffffffff021916908373ffffffffffffffffffffffffffffffffffffffff160217905550602082015181600101908051906020019062000dc392919062001dda565b50604082015181600201908051906020019062000de292919062001dda565b5060608201518160030160006101000a81548160ff021916908360ff1602179055509050506002600081819054906101000a900460ff168092919062000e289062002cfa565b91906101000a81548160ff021916908360ff160217905550507f3a36db43caf9d93a9a0d7bb69d9845699785911ea6dd31d8a6261cb2b96cdaf7838388888860405162000e7a959493929190620029c9565b60405180910390a150509392505050565b62000e9562001c7b565b60004790503373ffffffffffffffffffffffffffffffffffffffff166108fc829081150290604051600060405180830381858888f1935050505015801562000ee1573d6000803e3d6000fd5b507fc9b8904f107ae4da3d2ad4711f76c06883f129ef1bdc7276c9e87b1735c958d38160405162000f1391906200286e565b60405180910390a150565b6000606080600080600760008760ff1660ff1681526020019081526020016000206040518060800160405290816000820160009054906101000a900473ffffffffffffffffffffffffffffffffffffffff1673ffffffffffffffffffffffffffffffffffffffff1673ffffffffffffffffffffffffffffffffffffffff16815260200160018201805462000fb29062002c40565b80601f016020809104026020016040519081016040528092919081815260200182805462000fe09062002c40565b8015620010315780601f10620010055761010080835404028352916020019162001031565b820191906000526020600020905b8154815290600101906020018083116200101357829003601f168201915b505050505081526020016002820180546200104c9062002c40565b80601f01602080910402602001604051908101604052809291908181526020018280546200107a9062002c40565b8015620010cb5780601f106200109f57610100808354040283529160200191620010cb565b820191906000526020600020905b815481529060010190602001808311620010ad57829003601f168201915b505050505081526020016003820160009054906101000a900460ff1660ff1660ff1681525050905080600001519450806020015193508060400151925080606001519150509193509193565b6000806000600a60008660ff1660ff16815260200190815260200160002060008573ffffffffffffffffffffffffffffffffffffffff1673ffffffffffffffffffffffffffffffffffffffff1681526020019081526020016000206040518060400160405290816000820154815260200160018201548152505090508060000151925080602001519150509250929050565b6000806000600860008660ff1660ff16815260200190815260200160002060008560ff1660ff1681526020019081526020016000206040518060400160405290816000820154815260200160018201548152505090508060000151925080602001519150509250929050565b600460003373ffffffffffffffffffffffffffffffffffffffff1673ffffffffffffffffffffffffffffffffffffffff16815260200190815260200160002060009054906101000a900460ff16620012a4576040517f08c379a00000000000000000000000000000000000000000000000000000000081526004016200129b906200284c565b60405180910390fd5b600082829050905060005b818110156200132c5762001314848483818110620012f6577f4e487b7100000000000000000000000000000000000000000000000000000000600052603260045260246000fd5b905060a002018036038101906200130e9190620022b5565b6200164a565b50508080620013239062002cac565b915050620012af565b50505050565b6200133c62001c7b565b600073ffffffffffffffffffffffffffffffffffffffff168273ffffffffffffffffffffffffffffffffffffffff161415620013af576040517f08c379a0000000000000000000000000000000000000000000000000000000008152600401620013a690620027e6565b60405180910390fd5b80600460008473ffffffffffffffffffffffffffffffffffffffff1673ffffffffffffffffffffffffffffffffffffffff16815260200190815260200160002060006101000a81548160ff0219169083151502179055507fdf795c3eb1329cd09b5fe356777b8d1024fa99aef23b0c425a696e4d0ae6775d8282604051620014399291906200264f565b60405180910390a15050565b60046020528060005260406000206000915054906101000a900460ff1681565b6200146f62001c7b565b600260009054906101000a900460ff1660ff168460ff1610620014c9576040517f08c379a0000000000000000000000000000000000000000000000000000000008152600401620014c09062002808565b60405180910390fd5b604051806040016040528083815260200182815250600860008660ff1660ff16815260200190815260200160002060008560ff1660ff16815260200190815260200160002060008201518160000155602082015181600101559050507fb4211d6c95eff9cd9fde1006e876bed3ed352b7c8969a4ac1d9ec0aee2c0463e848484846040516200155c949392919062002a34565b60405180910390a150505050565b6200157462001c7b565b600073ffffffffffffffffffffffffffffffffffffffff168173ffffffffffffffffffffffffffffffffffffffff161415620015e7576040517f08c379a0000000000000000000000000000000000000000000000000000000008152600401620015de90620027c4565b60405180910390fd5b620015f28162001d00565b50565b600043905090565b6200160762001c7b565b806001819055507f8f0cc67590486871f949280b250f501facfc4a2a4127af00198b8fa69cc3d797816040516200163f91906200286e565b60405180910390a150565b60006060600060086000856020015160ff1660ff1681526020019081526020016000206000856040015160ff1660ff168152602001908152602001600020604051806040016040529081600082015481526020016001820154815250509050620016b4846200098b565b8093508194505050826200172a577f61789955ae7214da9bd17c53ab2d49bc5246772c0a2e14feba264a235747cbf38460000151856020015186604001513388606001518660000151476003548b8b6040516200171b9a99989796959493929190620028f5565b60405180910390a15062001c76565b6000846020015160ff1614156200179157836060015173ffffffffffffffffffffffffffffffffffffffff166108fc82600001519081150290604051600060405180830381858888f193505050501580156200178a573d6000803e3d6000fd5b50620019e3565b600060076000866020015160ff1660ff1681526020019081526020016000206040518060800160405290816000820160009054906101000a900473ffffffffffffffffffffffffffffffffffffffff1673ffffffffffffffffffffffffffffffffffffffff1673ffffffffffffffffffffffffffffffffffffffff168152602001600182018054620018239062002c40565b80601f0160208091040260200160405190810160405280929190818152602001828054620018519062002c40565b8015620018a25780601f106200187657610100808354040283529160200191620018a2565b820191906000526020600020905b8154815290600101906020018083116200188457829003601f168201915b50505050508152602001600282018054620018bd9062002c40565b80601f0160208091040260200160405190810160405280929190818152602001828054620018eb9062002c40565b80156200193c5780601f1062001910576101008083540402835291602001916200193c565b820191906000526020600020905b8154815290600101906020018083116200191e57829003601f168201915b505050505081526020016003820160009054906101000a900460ff1660ff1660ff16815250509050806000015173ffffffffffffffffffffffffffffffffffffffff166340c10f19866060015184600001516040518363ffffffff1660e01b8152600401620019ad929190620026d7565b600060405180830381600087803b158015620019c857600080fd5b505af1158015620019dd573d6000803e3d6000fd5b50505050505b600160036000828254620019f8919062002b47565b92505081905550600160096000866020015160ff1660ff168152602001908152602001600020600001600082825462001a32919062002b47565b92505081905550806000015160096000866020015160ff1660ff168152602001908152602001600020600101600082825462001a6f919062002b47565b925050819055506001600a6000866020015160ff1660ff1681526020019081526020016000206000866060015173ffffffffffffffffffffffffffffffffffffffff1673ffffffffffffffffffffffffffffffffffffffff168152602001908152602001600020600001600082825462001aea919062002b47565b925050819055508060000151600a6000866020015160ff1660ff1681526020019081526020016000206000866060015173ffffffffffffffffffffffffffffffffffffffff1673ffffffffffffffffffffffffffffffffffffffff168152602001908152602001600020600101600082825462001b68919062002b47565b9250508190555080602001514262001b81919062002b47565b60066000866060015173ffffffffffffffffffffffffffffffffffffffff1673ffffffffffffffffffffffffffffffffffffffff1681526020019081526020016000206000866020015160ff1660ff168152602001908152602001600020819055506001600560008660000151815260200190815260200160002060006101000a81548160ff0219169083151502179055507f61789955ae7214da9bd17c53ab2d49bc5246772c0a2e14feba264a235747cbf38460000151856020015186604001513388606001518660000151476003548b8b60405162001c6c9a99989796959493929190620028f5565b60405180910390a1505b915091565b62001c8562001dc4565b73ffffffffffffffffffffffffffffffffffffffff1662001ca562000c5e565b73ffffffffffffffffffffffffffffffffffffffff161462001cfe576040517f08c379a000000000000000000000000000000000000000000000000000000000815260040162001cf5906200282a565b60405180910390fd5b565b60008060009054906101000a900473ffffffffffffffffffffffffffffffffffffffff169050816000806101000a81548173ffffffffffffffffffffffffffffffffffffffff021916908373ffffffffffffffffffffffffffffffffffffffff1602179055508173ffffffffffffffffffffffffffffffffffffffff168173ffffffffffffffffffffffffffffffffffffffff167f8be0079c531659141344cd1fd0a4f28419497f9722a3daafe3b4186f6b6457e060405160405180910390a35050565b600033905090565b611a358062002f9583390190565b82805462001de89062002c40565b90600052602060002090601f01602090048101928262001e0c576000855562001e58565b82601f1062001e2757805160ff191683800117855562001e58565b8280016001018555821562001e58579182015b8281111562001e5757825182559160200191906001019062001e3a565b5b50905062001e67919062001e6b565b5090565b5b8082111562001e8657600081600090555060010162001e6c565b5090565b600062001ea162001e9b8462002aaa565b62002a81565b9050808382526020820190508285602086028201111562001ec157600080fd5b60005b8581101562001ef5578162001eda888262001f44565b84526020840193506020830192505060018101905062001ec4565b5050509392505050565b600062001f1662001f108462002ad9565b62002a81565b90508281526020810184848401111562001f2f57600080fd5b62001f3c84828562002bfb565b509392505050565b60008135905062001f558162002f2c565b92915050565b600082601f83011262001f6d57600080fd5b813562001f7f84826020860162001e8a565b91505092915050565b60008083601f84011262001f9b57600080fd5b8235905067ffffffffffffffff81111562001fb557600080fd5b6020830191508360a082028301111562001fce57600080fd5b9250929050565b60008135905062001fe68162002f46565b92915050565b600082601f83011262001ffe57600080fd5b81356200201084826020860162001eff565b91505092915050565b600060a082840312156200202c57600080fd5b6200203860a062002a81565b905060006200204a84828501620020ae565b60008301525060206200206084828501620020c5565b60208301525060406200207684828501620020c5565b60408301525060606200208c8482850162001f44565b6060830152506080620020a284828501620020ae565b60808301525092915050565b600081359050620020bf8162002f60565b92915050565b600081359050620020d68162002f7a565b92915050565b600060208284031215620020ef57600080fd5b6000620020ff8482850162001f44565b91505092915050565b600080604083850312156200211c57600080fd5b60006200212c8582860162001f44565b92505060206200213f8582860162001fd5565b9150509250929050565b600080604083850312156200215d57600080fd5b60006200216d8582860162001f44565b92505060206200218085828601620020c5565b9150509250929050565b600080604083850312156200219e57600080fd5b600083013567ffffffffffffffff811115620021b957600080fd5b620021c78582860162001f5b565b9250506020620021da8582860162001fd5565b9150509250929050565b60008060208385031215620021f857600080fd5b600083013567ffffffffffffffff8111156200221357600080fd5b620022218582860162001f88565b92509250509250929050565b6000806000606084860312156200224357600080fd5b600084013567ffffffffffffffff8111156200225e57600080fd5b6200226c8682870162001fec565b935050602084013567ffffffffffffffff8111156200228a57600080fd5b620022988682870162001fec565b9250506040620022ab86828701620020c5565b9150509250925092565b600060a08284031215620022c857600080fd5b6000620022d88482850162002019565b91505092915050565b600060208284031215620022f457600080fd5b60006200230484828501620020ae565b91505092915050565b600080600080600060a086880312156200232657600080fd5b60006200233688828901620020ae565b95505060206200234988828901620020c5565b94505060406200235c88828901620020c5565b93505060606200236f8882890162001f44565b92505060806200238288828901620020ae565b9150509295509295909350565b600060208284031215620023a257600080fd5b6000620023b284828501620020c5565b91505092915050565b60008060408385031215620023cf57600080fd5b6000620023df85828601620020c5565b9250506020620023f28582860162001f44565b9150509250929050565b600080604083850312156200241057600080fd5b60006200242085828601620020c5565b92505060206200243385828601620020c5565b9150509250929050565b600080600080608085870312156200245457600080fd5b60006200246487828801620020c5565b94505060206200247787828801620020c5565b93505060406200248a87828801620020ae565b92505060606200249d87828801620020ae565b91505092959194509250565b620024b48162002ba4565b82525050565b620024c58162002bb8565b82525050565b6000620024d88262002b0f565b620024e4818562002b25565b9350620024f681856020860162002c0a565b620025018162002db6565b840191505092915050565b6000620025198262002b1a565b62002525818562002b36565b93506200253781856020860162002c0a565b620025428162002db6565b840191505092915050565b60006200255c60268362002b36565b9150620025698262002dc7565b604082019050919050565b60006200258360298362002b36565b9150620025908262002e16565b604082019050919050565b6000620025aa60228362002b36565b9150620025b78262002e65565b604082019050919050565b6000620025d160208362002b36565b9150620025de8262002eb4565b602082019050919050565b6000620025f860278362002b36565b9150620026058262002edd565b604082019050919050565b6200261b8162002be4565b82525050565b6200262c8162002bee565b82525050565b6000602082019050620026496000830184620024a9565b92915050565b6000604082019050620026666000830185620024a9565b620026756020830184620024ba565b9392505050565b6000608082019050620026936000830187620024a9565b8181036020830152620026a781866200250c565b90508181036040830152620026bd81856200250c565b9050620026ce606083018462002621565b95945050505050565b6000604082019050620026ee6000830185620024a9565b620026fd602083018462002610565b9392505050565b60006020820190506200271b6000830184620024ba565b92915050565b6000604082019050620027386000830185620024ba565b81810360208301526200274c81846200250c565b90509392505050565b600060208201905081810360008301526200277181846200250c565b905092915050565b600060608201905081810360008301526200279581866200250c565b90508181036020830152620027ab81856200250c565b9050620027bc604083018462002621565b949350505050565b60006020820190508181036000830152620027df816200254d565b9050919050565b60006020820190508181036000830152620028018162002574565b9050919050565b6000602082019050818103600083015262002823816200259b565b9050919050565b600060208201905081810360008301526200284581620025c2565b9050919050565b600060208201905081810360008301526200286781620025e9565b9050919050565b600060208201905062002885600083018462002610565b92915050565b6000604082019050620028a2600083018562002610565b620028b1602083018462002610565b9392505050565b6000606082019050620028cf600083018662002610565b620028de602083018562002610565b620028ed604083018462002610565b949350505050565b6000610140820190506200290d600083018d62002610565b6200291c602083018c62002621565b6200292b604083018b62002621565b6200293a606083018a620024a9565b620029496080830189620024a9565b6200295860a083018862002610565b6200296760c083018762002610565b6200297660e083018662002610565b62002986610100830185620024ba565b8181036101208301526200299b8184620024cb565b90509b9a5050505050505050505050565b6000602082019050620029c3600083018462002621565b92915050565b600060a082019050620029e0600083018862002621565b620029ef6020830187620024a9565b818103604083015262002a0381866200250c565b9050818103606083015262002a1981856200250c565b905062002a2a608083018462002621565b9695505050505050565b600060808201905062002a4b600083018762002621565b62002a5a602083018662002621565b62002a69604083018562002610565b62002a78606083018462002610565b95945050505050565b600062002a8d62002aa0565b905062002a9b828262002c76565b919050565b6000604051905090565b600067ffffffffffffffff82111562002ac85762002ac762002d87565b5b602082029050602081019050919050565b600067ffffffffffffffff82111562002af75762002af662002d87565b5b62002b028262002db6565b9050602081019050919050565b600081519050919050565b600081519050919050565b600082825260208201905092915050565b600082825260208201905092915050565b600062002b548262002be4565b915062002b618362002be4565b9250827fffffffffffffffffffffffffffffffffffffffffffffffffffffffffffffffff0382111562002b995762002b9862002d29565b5b828201905092915050565b600062002bb18262002bc4565b9050919050565b60008115159050919050565b600073ffffffffffffffffffffffffffffffffffffffff82169050919050565b6000819050919050565b600060ff82169050919050565b82818337600083830152505050565b60005b8381101562002c2a57808201518184015260208101905062002c0d565b8381111562002c3a576000848401525b50505050565b6000600282049050600182168062002c5957607f821691505b6020821081141562002c705762002c6f62002d58565b5b50919050565b62002c818262002db6565b810181811067ffffffffffffffff8211171562002ca35762002ca262002d87565b5b80604052505050565b600062002cb98262002be4565b91507fffffffffffffffffffffffffffffffffffffffffffffffffffffffffffffffff82141562002cef5762002cee62002d29565b5b600182019050919050565b600062002d078262002bee565b915060ff82141562002d1e5762002d1d62002d29565b5b600182019050919050565b7f4e487b7100000000000000000000000000000000000000000000000000000000600052601160045260246000fd5b7f4e487b7100000000000000000000000000000000000000000000000000000000600052602260045260246000fd5b7f4e487b7100000000000000000000000000000000000000000000000000000000600052604160045260246000fd5b6000601f19601f8301169050919050565b7f4f776e61626c653a206e6577206f776e657220697320746865207a65726f206160008201527f6464726573730000000000000000000000000000000000000000000000000000602082015250565b7f4661756365743a3a73657453656e6465723a20696e76616c69642073656e646560008201527f7220616464726573730000000000000000000000000000000000000000000000602082015250565b7f4661756365743a3a7365744c696d69743a20696e76616c696420746f6b656e2060008201527f4944000000000000000000000000000000000000000000000000000000000000602082015250565b7f4f776e61626c653a2063616c6c6572206973206e6f7420746865206f776e6572600082015250565b7f4661756365743a3a73656e64546f6b656e3a2063616c6c6572206973206e6f7460008201527f2073656e64657200000000000000000000000000000000000000000000000000602082015250565b62002f378162002ba4565b811462002f4357600080fd5b50565b62002f518162002bb8565b811462002f5d57600080fd5b50565b62002f6b8162002be4565b811462002f7757600080fd5b50565b62002f858162002bee565b811462002f9157600080fd5b5056fe60806040523480156200001157600080fd5b5060405162001a3538038062001a3583398181016040528101906200003791906200020b565b8282816003908051906020019062000051929190620000d2565b5080600490805190602001906200006a929190620000d2565b50505080600560006101000a81548160ff021916908360ff16021790555033600560016101000a81548173ffffffffffffffffffffffffffffffffffffffff021916908373ffffffffffffffffffffffffffffffffffffffff1602179055505050506200042a565b828054620000e09062000335565b90600052602060002090601f01602090048101928262000104576000855562000150565b82601f106200011f57805160ff191683800117855562000150565b8280016001018555821562000150579182015b828111156200014f57825182559160200191906001019062000132565b5b5090506200015f919062000163565b5090565b5b808211156200017e57600081600090555060010162000164565b5090565b6000620001996200019384620002bc565b62000293565b905082815260208101848484011115620001b257600080fd5b620001bf848285620002ff565b509392505050565b600082601f830112620001d957600080fd5b8151620001eb84826020860162000182565b91505092915050565b600081519050620002058162000410565b92915050565b6000806000606084860312156200022157600080fd5b600084015167ffffffffffffffff8111156200023c57600080fd5b6200024a86828701620001c7565b935050602084015167ffffffffffffffff8111156200026857600080fd5b6200027686828701620001c7565b92505060406200028986828701620001f4565b9150509250925092565b60006200029f620002b2565b9050620002ad82826200036b565b919050565b6000604051905090565b600067ffffffffffffffff821115620002da57620002d9620003d0565b5b620002e582620003ff565b9050602081019050919050565b600060ff82169050919050565b60005b838110156200031f57808201518184015260208101905062000302565b838111156200032f576000848401525b50505050565b600060028204905060018216806200034e57607f821691505b60208210811415620003655762000364620003a1565b5b50919050565b6200037682620003ff565b810181811067ffffffffffffffff82111715620003985762000397620003d0565b5b80604052505050565b7f4e487b7100000000000000000000000000000000000000000000000000000000600052602260045260246000fd5b7f4e487b7100000000000000000000000000000000000000000000000000000000600052604160045260246000fd5b6000601f19601f8301169050919050565b6200041b81620002f2565b81146200042757600080fd5b50565b6115fb806200043a6000396000f3fe608060405234801561001057600080fd5b50600436106100cf5760003560e01c806340c10f191161008c578063a457c2d711610066578063a457c2d714610228578063a9059cbb14610258578063dd62ed3e14610288578063f851a440146102b8576100cf565b806340c10f19146101be57806370a08231146101da57806395d89b411461020a576100cf565b806306fdde03146100d4578063095ea7b3146100f257806318160ddd1461012257806323b872dd14610140578063313ce56714610170578063395093511461018e575b600080fd5b6100dc6102d6565b6040516100e99190611009565b60405180910390f35b61010c60048036038101906101079190610de7565b610368565b6040516101199190610fee565b60405180910390f35b61012a61038b565b604051610137919061114b565b60405180910390f35b61015a60048036038101906101559190610d98565b610395565b6040516101679190610fee565b60405180910390f35b6101786103c4565b6040516101859190611166565b60405180910390f35b6101a860048036038101906101a39190610de7565b6103db565b6040516101b59190610fee565b60405180910390f35b6101d860048036038101906101d39190610de7565b610412565b005b6101f460048036038101906101ef9190610d33565b6104b0565b604051610201919061114b565b60405180910390f35b6102126104f8565b60405161021f9190611009565b60405180910390f35b610242600480360381019061023d9190610de7565b61058a565b60405161024f9190610fee565b60405180910390f35b610272600480360381019061026d9190610de7565b610601565b60405161027f9190610fee565b60405180910390f35b6102a2600480360381019061029d9190610d5c565b610624565b6040516102af919061114b565b60405180910390f35b6102c06106ab565b6040516102cd9190610fd3565b60405180910390f35b6060600380546102e59061127b565b80601f01602080910402602001604051908101604052809291908181526020018280546103119061127b565b801561035e5780601f106103335761010080835404028352916020019161035e565b820191906000526020600020905b81548152906001019060200180831161034157829003601f168201915b5050505050905090565b6000806103736106d1565b90506103808185856106d9565b600191505092915050565b6000600254905090565b6000806103a06106d1565b90506103ad8582856108a4565b6103b8858585610930565b60019150509392505050565b6000600560009054906101000a900460ff16905090565b6000806103e66106d1565b90506104078185856103f88589610624565b610402919061119d565b6106d9565b600191505092915050565b600560019054906101000a900473ffffffffffffffffffffffffffffffffffffffff1673ffffffffffffffffffffffffffffffffffffffff163373ffffffffffffffffffffffffffffffffffffffff16146104a2576040517f08c379a0000000000000000000000000000000000000000000000000000000008152600401610499906110ab565b60405180910390fd5b6104ac8282610ba8565b5050565b60008060008373ffffffffffffffffffffffffffffffffffffffff1673ffffffffffffffffffffffffffffffffffffffff168152602001908152602001600020549050919050565b6060600480546105079061127b565b80601f01602080910402602001604051908101604052809291908181526020018280546105339061127b565b80156105805780601f1061055557610100808354040283529160200191610580565b820191906000526020600020905b81548152906001019060200180831161056357829003601f168201915b5050505050905090565b6000806105956106d1565b905060006105a38286610624565b9050838110156105e8576040517f08c379a00000000000000000000000000000000000000000000000000000000081526004016105df9061110b565b60405180910390fd5b6105f582868684036106d9565b60019250505092915050565b60008061060c6106d1565b9050610619818585610930565b600191505092915050565b6000600160008473ffffffffffffffffffffffffffffffffffffffff1673ffffffffffffffffffffffffffffffffffffffff16815260200190815260200160002060008373ffffffffffffffffffffffffffffffffffffffff1673ffffffffffffffffffffffffffffffffffffffff16815260200190815260200160002054905092915050565b600560019054906101000a900473ffffffffffffffffffffffffffffffffffffffff1681565b600033905090565b600073ffffffffffffffffffffffffffffffffffffffff168373ffffffffffffffffffffffffffffffffffffffff161415610749576040517f08c379a0000000000000000000000000000000000000000000000000000000008152600401610740906110eb565b60405180910390fd5b600073ffffffffffffffffffffffffffffffffffffffff168273ffffffffffffffffffffffffffffffffffffffff1614156107b9576040517f08c379a00000000000000000000000000000000000000000000000000000000081526004016107b09061104b565b60405180910390fd5b80600160008573ffffffffffffffffffffffffffffffffffffffff1673ffffffffffffffffffffffffffffffffffffffff16815260200190815260200160002060008473ffffffffffffffffffffffffffffffffffffffff1673ffffffffffffffffffffffffffffffffffffffff168152602001908152602001600020819055508173ffffffffffffffffffffffffffffffffffffffff168373ffffffffffffffffffffffffffffffffffffffff167f8c5be1e5ebec7d5bd14f71427d1e84f3dd0314c0f7b2291e5b200ac8c7c3b92583604051610897919061114b565b60405180910390a3505050565b60006108b08484610624565b90507fffffffffffffffffffffffffffffffffffffffffffffffffffffffffffffffff811461092a578181101561091c576040517f08c379a00000000000000000000000000000000000000000000000000000000081526004016109139061106b565b60405180910390fd5b61092984848484036106d9565b5b50505050565b600073ffffffffffffffffffffffffffffffffffffffff168373ffffffffffffffffffffffffffffffffffffffff1614156109a0576040517f08c379a0000000000000000000000000000000000000000000000000000000008152600401610997906110cb565b60405180910390fd5b600073ffffffffffffffffffffffffffffffffffffffff168273ffffffffffffffffffffffffffffffffffffffff161415610a10576040517f08c379a0000000000000000000000000000000000000000000000000000000008152600401610a079061102b565b60405180910390fd5b610a1b838383610cff565b60008060008573ffffffffffffffffffffffffffffffffffffffff1673ffffffffffffffffffffffffffffffffffffffff16815260200190815260200160002054905081811015610aa1576040517f08c379a0000000000000000000000000000000000000000000000000000000008152600401610a989061108b565b60405180910390fd5b8181036000808673ffffffffffffffffffffffffffffffffffffffff1673ffffffffffffffffffffffffffffffffffffffff16815260200190815260200160002081905550816000808573ffffffffffffffffffffffffffffffffffffffff1673ffffffffffffffffffffffffffffffffffffffff168152602001908152602001600020600082825401925050819055508273ffffffffffffffffffffffffffffffffffffffff168473ffffffffffffffffffffffffffffffffffffffff167fddf252ad1be2c89b69c2b068fc378daa952ba7f163c4a11628f55a4df523b3ef84604051610b8f919061114b565b60405180910390a3610ba2848484610d04565b50505050565b600073ffffffffffffffffffffffffffffffffffffffff168273ffffffffffffffffffffffffffffffffffffffff161415610c18576040517f08c379a0000000000000000000000000000000000000000000000000000000008152600401610c0f9061112b565b60405180910390fd5b610c2460008383610cff565b8060026000828254610c36919061119d565b92505081905550806000808473ffffffffffffffffffffffffffffffffffffffff1673ffffffffffffffffffffffffffffffffffffffff168152602001908152602001600020600082825401925050819055508173ffffffffffffffffffffffffffffffffffffffff16600073ffffffffffffffffffffffffffffffffffffffff167fddf252ad1be2c89b69c2b068fc378daa952ba7f163c4a11628f55a4df523b3ef83604051610ce7919061114b565b60405180910390a3610cfb60008383610d04565b5050565b505050565b505050565b600081359050610d1881611597565b92915050565b600081359050610d2d816115ae565b92915050565b600060208284031215610d4557600080fd5b6000610d5384828501610d09565b91505092915050565b60008060408385031215610d6f57600080fd5b6000610d7d85828601610d09565b9250506020610d8e85828601610d09565b9150509250929050565b600080600060608486031215610dad57600080fd5b6000610dbb86828701610d09565b9350506020610dcc86828701610d09565b9250506040610ddd86828701610d1e565b9150509250925092565b60008060408385031215610dfa57600080fd5b6000610e0885828601610d09565b9250506020610e1985828601610d1e565b9150509250929050565b610e2c816111f3565b82525050565b610e3b81611205565b82525050565b6000610e4c82611181565b610e56818561118c565b9350610e66818560208601611248565b610e6f8161130b565b840191505092915050565b6000610e8760238361118c565b9150610e928261131c565b604082019050919050565b6000610eaa60228361118c565b9150610eb58261136b565b604082019050919050565b6000610ecd601d8361118c565b9150610ed8826113ba565b602082019050919050565b6000610ef060268361118c565b9150610efb826113e3565b604082019050919050565b6000610f1360228361118c565b9150610f1e82611432565b604082019050919050565b6000610f3660258361118c565b9150610f4182611481565b604082019050919050565b6000610f5960248361118c565b9150610f64826114d0565b604082019050919050565b6000610f7c60258361118c565b9150610f878261151f565b604082019050919050565b6000610f9f601f8361118c565b9150610faa8261156e565b602082019050919050565b610fbe81611231565b82525050565b610fcd8161123b565b82525050565b6000602082019050610fe86000830184610e23565b92915050565b60006020820190506110036000830184610e32565b92915050565b600060208201905081810360008301526110238184610e41565b905092915050565b6000602082019050818103600083015261104481610e7a565b9050919050565b6000602082019050818103600083015261106481610e9d565b9050919050565b6000602082019050818103600083015261108481610ec0565b9050919050565b600060208201905081810360008301526110a481610ee3565b9050919050565b600060208201905081810360008301526110c481610f06565b9050919050565b600060208201905081810360008301526110e481610f29565b9050919050565b6000602082019050818103600083015261110481610f4c565b9050919050565b6000602082019050818103600083015261112481610f6f565b9050919050565b6000602082019050818103600083015261114481610f92565b9050919050565b60006020820190506111606000830184610fb5565b92915050565b600060208201905061117b6000830184610fc4565b92915050565b600081519050919050565b600082825260208201905092915050565b60006111a882611231565b91506111b383611231565b9250827fffffffffffffffffffffffffffffffffffffffffffffffffffffffffffffffff038211156111e8576111e76112ad565b5b828201905092915050565b60006111fe82611211565b9050919050565b60008115159050919050565b600073ffffffffffffffffffffffffffffffffffffffff82169050919050565b6000819050919050565b600060ff82169050919050565b60005b8381101561126657808201518184015260208101905061124b565b83811115611275576000848401525b50505050565b6000600282049050600182168061129357607f821691505b602082108114156112a7576112a66112dc565b5b50919050565b7f4e487b7100000000000000000000000000000000000000000000000000000000600052601160045260246000fd5b7f4e487b7100000000000000000000000000000000000000000000000000000000600052602260045260246000fd5b6000601f19601f8301169050919050565b7f45524332303a207472616e7366657220746f20746865207a65726f206164647260008201527f6573730000000000000000000000000000000000000000000000000000000000602082015250565b7f45524332303a20617070726f766520746f20746865207a65726f20616464726560008201527f7373000000000000000000000000000000000000000000000000000000000000602082015250565b7f45524332303a20696e73756666696369656e7420616c6c6f77616e6365000000600082015250565b7f45524332303a207472616e7366657220616d6f756e742065786365656473206260008201527f616c616e63650000000000000000000000000000000000000000000000000000602082015250565b7f455243323054656d706c6174653a2043616c6c6572206973206e6f742061646d60008201527f696e000000000000000000000000000000000000000000000000000000000000602082015250565b7f45524332303a207472616e736665722066726f6d20746865207a65726f20616460008201527f6472657373000000000000000000000000000000000000000000000000000000602082015250565b7f45524332303a20617070726f76652066726f6d20746865207a65726f2061646460008201527f7265737300000000000000000000000000000000000000000000000000000000602082015250565b7f45524332303a2064656372656173656420616c6c6f77616e63652062656c6f7760008201527f207a65726f000000000000000000000000000000000000000000000000000000602082015250565b7f45524332303a206d696e7420746f20746865207a65726f206164647265737300600082015250565b6115a0816111f3565b81146115ab57600080fd5b50565b6115b781611231565b81146115c257600080fd5b5056fea2646970667358221220c14544f8ac1db115b2cd88f589010a2346e9e56af08931857a69b8a4aebff12464736f6c634300080400334661756365743a3a73656e64546f6b656e3a20696e76616c69642073656e6449444661756365743a3a73656e64546f6b656e3a207468697320757365722063616e206e6f74206170706c79207965744661756365743a3a73656e64546f6b656e3a20726571756573742068617320657870697265644661756365743a3a73656e64546f6b656e3a20696e76616c696420746f6b656e2049444661756365743a3a73656e64546f6b656e3a20746865206f7264657220686173206265656e2070726f6365737365644661756365743a3a73656e64546f6b656e3a20696e73756666696369656e74204f4b422062616c616e63654661756365743a3a73656e64546f6b656e3a207265636569766572206d757374206265206120454f41a264697066735822122068980bfd8cdea13346b99fa6081ff0749352f7fc2f16caa6de9d630e89932d5864736f6c63430008040033",
  "linkReferences": {},
  "deployedLinkReferences": {}
}